{"abi":[{"type":"constructor","inputs":[{"name":"_forwarder","type":"address","internalType":"address"}],"stateMutability":"nonpayable"},{"type":"function","name":"forwarder","inputs":[],"outputs":[{"name":"","type":"address","internalType":"address"}],"stateMutability":"view"},{"type":"function","name":"records","inputs":[{"name":"","type":"uint256","internalType":"uint256"}],"outputs":[{"name":"token","type":"string","internalType":"string"},{"name":"price","type":"uint256","internalType":"uint256"},{"name":"blockNumber","type":"uint256","internalType":"uint256"},{"name":"timestamp","type":"uint256","internalType":"uint256"}],"stateMutability":"view"},{"type":"function","name":"snapshot","inputs":[{"name":"token","type":"string","internalType":"string"},{"name":"price","type":"uint256","internalType":"uint256"},{"name":"blockNumber","type":"uint256","internalType":"uint256"},{"name":"timestamp","type":"uint256","internalType":"uint256"}],"outputs":[],"stateMutability":"nonpayable"},{"type":"function","name":"totalRecords","inputs":[],"outputs":[{"name":"","type":"uint256","internalType":"uint256"}],"stateMutability":"view"},{"type":"event","name":"SnapshotStored","inputs":[{"name":"token","type":"string","indexed":false,"internalType":"string"},{"name":"price","type":"uint256","indexed":false,"internalType":"uint256"},{"name":"blockNumber","type":"uint256","indexed":false,"internalType":"uint256"},{"name":"timestamp","type":"uint256","indexed":false,"internalType":"uint256"}],"anonymous":false}],"bytecode":{"object":"0x60a060405234801561000f575f5ffd5b50604051610b21380380610b21833981810160405281019061003191906100c9565b8073ffffffffffffffffffffffffffffffffffffffff1660808173ffffffffffffffffffffffffffffffffffffffff1681525050506100f4565b5f5ffd5b5f73ffffffffffffffffffffffffffffffffffffffff82169050919050565b5f6100988261006f565b9050919050565b6100a88161008e565b81146100b2575f5ffd5b50565b5f815190506100c38161009f565b92915050565b5f602082840312156100de576100dd61006b565b5b5f6100eb848285016100b5565b91505092915050565b608051610a0e6101135f395f81816101a601526103390152610a0e5ff3fe608060405234801561000f575f5ffd5b506004361061004a575f3560e01c8063125f89741461004e578063344610671461006c578063a32f73791461009f578063f645d4f9146100bb575b5f5ffd5b6100566100d9565b6040516100639190610373565b60405180910390f35b610086600480360381019061008191906103be565b6100e4565b6040516100969493929190610459565b60405180910390f35b6100b960048036038101906100b49190610504565b6101a4565b005b6100c3610337565b6040516100d091906105c7565b60405180910390f35b5f5f80549050905090565b5f81815481106100f2575f80fd5b905f5260205f2090600402015f91509050805f0180546101119061060d565b80601f016020809104026020016040519081016040528092919081815260200182805461013d9061060d565b80156101885780601f1061015f57610100808354040283529160200191610188565b820191905f5260205f20905b81548152906001019060200180831161016b57829003601f168201915b5050505050908060010154908060020154908060030154905084565b7f000000000000000000000000000000000000000000000000000000000000000073ffffffffffffffffffffffffffffffffffffffff163373ffffffffffffffffffffffffffffffffffffffff1614610232576040517f08c379a000000000000000000000000000000000000000000000000000000000815260040161022990610687565b60405180910390fd5b5f604051806080016040528087878080601f0160208091040260200160405190810160405280939291908181526020018383808284375f81840152601f19601f82011690508083019250505050505050815260200185815260200184815260200183815250908060018154018082558091505060019003905f5260205f2090600402015f909190919091505f820151815f0190816102d09190610883565b5060208201518160010155604082015181600201556060820151816003015550507f0f2c6941b48ac7d9bd2cf04863d77f51ffdb199c1fca8c90903b486c29bf43a7858585858560405161032895949392919061098c565b60405180910390a15050505050565b7f000000000000000000000000000000000000000000000000000000000000000081565b5f819050919050565b61036d8161035b565b82525050565b5f6020820190506103865f830184610364565b92915050565b5f5ffd5b5f5ffd5b61039d8161035b565b81146103a7575f5ffd5b50565b5f813590506103b881610394565b92915050565b5f602082840312156103d3576103d261038c565b5b5f6103e0848285016103aa565b91505092915050565b5f81519050919050565b5f82825260208201905092915050565b8281835e5f83830152505050565b5f601f19601f8301169050919050565b5f61042b826103e9565b61043581856103f3565b9350610445818560208601610403565b61044e81610411565b840191505092915050565b5f6080820190508181035f8301526104718187610421565b90506104806020830186610364565b61048d6040830185610364565b61049a6060830184610364565b95945050505050565b5f5ffd5b5f5ffd5b5f5ffd5b5f5f83601f8401126104c4576104c36104a3565b5b8235905067ffffffffffffffff8111156104e1576104e06104a7565b5b6020830191508360018202830111156104fd576104fc6104ab565b5b9250929050565b5f5f5f5f5f6080868803121561051d5761051c61038c565b5b5f86013567ffffffffffffffff81111561053a57610539610390565b5b610546888289016104af565b95509550506020610559888289016103aa565b935050604061056a888289016103aa565b925050606061057b888289016103aa565b9150509295509295909350565b5f73ffffffffffffffffffffffffffffffffffffffff82169050919050565b5f6105b182610588565b9050919050565b6105c1816105a7565b82525050565b5f6020820190506105da5f8301846105b8565b92915050565b7f4e487b71000000000000000000000000000000000000000000000000000000005f52602260045260245ffd5b5f600282049050600182168061062457607f821691505b602082108103610637576106366105e0565b5b50919050565b7f4f6e6c7920466f727761726465720000000000000000000000000000000000005f82015250565b5f610671600e836103f3565b915061067c8261063d565b602082019050919050565b5f6020820190508181035f83015261069e81610665565b9050919050565b7f4e487b71000000000000000000000000000000000000000000000000000000005f52604160045260245ffd5b5f819050815f5260205f209050919050565b5f6020601f8301049050919050565b5f82821b905092915050565b5f6008830261072e7fffffffffffffffffffffffffffffffffffffffffffffffffffffffffffffffff826106f3565b61073886836106f3565b95508019841693508086168417925050509392505050565b5f819050919050565b5f61077361076e6107698461035b565b610750565b61035b565b9050919050565b5f819050919050565b61078c83610759565b6107a06107988261077a565b8484546106ff565b825550505050565b5f5f905090565b6107b76107a8565b6107c2818484610783565b505050565b5f5b828110156107e8576107dd5f8284016107af565b6001810190506107c9565b505050565b601f82111561083b578282111561083a57610807816106d2565b610810836106e4565b610819856106e4565b6020861015610826575f90505b808301610835828403826107c7565b505050505b5b505050565b5f82821c905092915050565b5f61085b5f1984600802610840565b1980831691505092915050565b5f610873838361084c565b9150826002028217905092915050565b61088c826103e9565b67ffffffffffffffff8111156108a5576108a46106a5565b5b6108af825461060d565b6108ba8282856107ed565b5f60209050601f8311600181146108eb575f84156108d9578287015190505b6108e38582610868565b86555061094a565b601f1984166108f9866106d2565b5f5b82811015610920578489015182556001820191506020850194506020810190506108fb565b8683101561093d5784890151610939601f89168261084c565b8355505b6001600288020188555050505b505050505050565b828183375f83830152505050565b5f61096b83856103f3565b9350610978838584610952565b61098183610411565b840190509392505050565b5f6080820190508181035f8301526109a5818789610960565b90506109b46020830186610364565b6109c16040830185610364565b6109ce6060830184610364565b969550505050505056fea2646970667358221220c1ea215a0e759aed73fac65afa827eec9591ee187f53acb5c1f9790c30c116aa64736f6c63430008230033","linkReferences":{}},"methodIdentifiers":{"forwarder()":"f645d4f9","records(uint256)":"34461067","snapshot(string,uint256,uint256,uint256)":"a32f7379","totalRecords()":"125f8974"},"id":0}